{
  "contractName": "SurveyReward",
  "abi": [
    {
      "constant": true,
      "inputs": [],
      "name": "name",
      "outputs": [
        {
          "name": "",
          "type": "string"
        }
      ],
      "payable": false,
      "stateMutability": "view",
      "type": "function",
      "signature": "0x06fdde03"
    },
    {
      "constant": true,
      "inputs": [
        {
          "name": "",
          "type": "uint256"
        }
      ],
      "name": "surveys",
      "outputs": [
        {
          "name": "title",
          "type": "string"
        },
        {
          "name": "conductor",
          "type": "address"
        },
        {
          "name": "questionCount",
          "type": "uint256"
        },
        {
          "name": "open",
          "type": "bool"
        },
        {
          "name": "reward",
          "type": "uint256"
        },
        {
          "name": "balance",
          "type": "uint256"
        },
        {
          "name": "description",
          "type": "string"
        }
      ],
      "payable": false,
      "stateMutability": "view",
      "type": "function",
      "signature": "0x86e68b90"
    },
    {
      "constant": true,
      "inputs": [],
      "name": "surveyCount",
      "outputs": [
        {
          "name": "",
          "type": "uint256"
        }
      ],
      "payable": false,
      "stateMutability": "view",
      "type": "function",
      "signature": "0xe804f4c0"
    },
    {
      "inputs": [],
      "payable": false,
      "stateMutability": "nonpayable",
      "type": "constructor",
      "signature": "constructor"
    },
    {
      "anonymous": false,
      "inputs": [
        {
          "indexed": false,
          "name": "title",
          "type": "string"
        },
        {
          "indexed": false,
          "name": "conductor",
          "type": "address"
        },
        {
          "indexed": false,
          "name": "questionCount",
          "type": "uint256"
        },
        {
          "indexed": false,
          "name": "open",
          "type": "bool"
        },
        {
          "indexed": false,
          "name": "reward",
          "type": "uint256"
        },
        {
          "indexed": false,
          "name": "balance",
          "type": "uint256"
        },
        {
          "indexed": false,
          "name": "description",
          "type": "string"
        }
      ],
      "name": "SurveyCreation",
      "type": "event",
      "signature": "0xee85475c09e77f9e2e0d504dab871a9c9190cf5862f4e9d717d9a5bbf3475db3"
    },
    {
      "anonymous": false,
      "inputs": [
        {
          "indexed": false,
          "name": "text",
          "type": "bytes32"
        },
        {
          "indexed": false,
          "name": "answerCount",
          "type": "uint256"
        },
        {
          "indexed": false,
          "name": "surveyid",
          "type": "uint256"
        },
        {
          "indexed": false,
          "name": "questionCount",
          "type": "uint256"
        }
      ],
      "name": "QuestionAdditionToSurvey",
      "type": "event",
      "signature": "0xd19d6c190f34df0b3e30c6c2b2acd40da46e6e43ee33ed45dea9ae31af9fb1a2"
    },
    {
      "anonymous": false,
      "inputs": [
        {
          "indexed": false,
          "name": "surveyid",
          "type": "uint256"
        },
        {
          "indexed": false,
          "name": "open",
          "type": "bool"
        },
        {
          "indexed": false,
          "name": "questionid",
          "type": "uint256"
        },
        {
          "indexed": false,
          "name": "participant",
          "type": "address"
        },
        {
          "indexed": false,
          "name": "answer",
          "type": "bytes32"
        }
      ],
      "name": "QuestionAnswered",
      "type": "event",
      "signature": "0x8aa2c645bf506856a79117408dbfc71d424f09eac568c8be4743f7e72ba2dc90"
    },
    {
      "anonymous": false,
      "inputs": [
        {
          "indexed": false,
          "name": "surveyid",
          "type": "uint256"
        },
        {
          "indexed": false,
          "name": "open",
          "type": "bool"
        }
      ],
      "name": "CloseSurvey",
      "type": "event",
      "signature": "0x5c98c563c156afb260a135bef89654797a180f5d7baba068ae602d6d2428ae6b"
    },
    {
      "constant": false,
      "inputs": [
        {
          "name": "_title",
          "type": "string"
        },
        {
          "name": "_reward",
          "type": "uint256"
        },
        {
          "name": "_description",
          "type": "string"
        },
        {
          "name": "questions",
          "type": "bytes32[]"
        }
      ],
      "name": "createSurvey",
      "outputs": [],
      "payable": true,
      "stateMutability": "payable",
      "type": "function",
      "signature": "0x1dfa728f"
    },
    {
      "constant": false,
      "inputs": [
        {
          "name": "_surveyid",
          "type": "uint256"
        }
      ],
      "name": "closeSurvey",
      "outputs": [],
      "payable": false,
      "stateMutability": "nonpayable",
      "type": "function",
      "signature": "0xd8fb49fe"
    },
    {
      "constant": true,
      "inputs": [
        {
          "name": "_surveyid",
          "type": "uint256"
        },
        {
          "name": "_questionid",
          "type": "uint256"
        }
      ],
      "name": "getQuestionFromSurvey",
      "outputs": [
        {
          "name": "",
          "type": "bytes32"
        }
      ],
      "payable": false,
      "stateMutability": "view",
      "type": "function",
      "signature": "0xc1a3eb12"
    },
    {
      "constant": true,
      "inputs": [
        {
          "name": "_surveyid",
          "type": "uint256"
        },
        {
          "name": "_questionid",
          "type": "uint256"
        }
      ],
      "name": "getAnswers",
      "outputs": [
        {
          "name": "",
          "type": "bytes32[]"
        }
      ],
      "payable": false,
      "stateMutability": "view",
      "type": "function",
      "signature": "0x8f0fff3d"
    },
    {
      "constant": false,
      "inputs": [
        {
          "name": "_surveyid",
          "type": "uint256"
        },
        {
          "name": "_questionid",
          "type": "uint256"
        },
        {
          "name": "_answer",
          "type": "bytes32"
        }
      ],
      "name": "answerQuestion",
      "outputs": [],
      "payable": true,
      "stateMutability": "payable",
      "type": "function",
      "signature": "0xc797b31e"
    },
    {
      "constant": true,
      "inputs": [
        {
          "name": "_surveyid",
          "type": "uint256"
        }
      ],
      "name": "getCheckpoint",
      "outputs": [
        {
          "name": "",
          "type": "uint256"
        }
      ],
      "payable": false,
      "stateMutability": "view",
      "type": "function",
      "signature": "0x20fc4881"
    },
    {
      "constant": true,
      "inputs": [
        {
          "name": "_surveyid",
          "type": "uint256"
        }
      ],
      "name": "getAllQuestions",
      "outputs": [
        {
          "name": "",
          "type": "bytes32[]"
        }
      ],
      "payable": false,
      "stateMutability": "view",
      "type": "function",
      "signature": "0xc01471bb"
    }
  ],
  "bytecode": "0x608060405260006001553480156200001657600080fd5b506040805190810160405280601e81526020017f53757276657920526577617264696e672053797374656d20627920424e42000081525060029080519060200190620000649291906200006b565b506200011a565b828054600181600116156101000203166002900490600052602060002090601f016020900481019282601f10620000ae57805160ff1916838001178555620000df565b82800160010185558215620000df579182015b82811115620000de578251825591602001919060010190620000c1565b5b509050620000ee9190620000f2565b5090565b6200011791905b8082111562000113576000816000905550600101620000f9565b5090565b90565b612765806200012a6000396000f3fe6080604052600436106100a4576000357c0100000000000000000000000000000000000000000000000000000000900463ffffffff16806306fdde03146100a95780631dfa728f1461013957806320fc48811461032957806386e68b90146103785780638f0fff3d146104eb578063c01471bb14610585578063c1a3eb1214610615578063c797b31e1461066e578063d8fb49fe146106b0578063e804f4c0146106eb575b600080fd5b3480156100b557600080fd5b506100be610716565b6040518080602001828103825283818151815260200191508051906020019080838360005b838110156100fe5780820151818401526020810190506100e3565b50505050905090810190601f16801561012b5780820380516001836020036101000a031916815260200191505b509250505060405180910390f35b6103276004803603608081101561014f57600080fd5b810190808035906020019064010000000081111561016c57600080fd5b82018360208201111561017e57600080fd5b803590602001918460018302840111640100000000831117156101a057600080fd5b91908080601f016020809104026020016040519081016040528093929190818152602001838380828437600081840152601f19601f820116905080830192505050505050509192919290803590602001909291908035906020019064010000000081111561020d57600080fd5b82018360208201111561021f57600080fd5b8035906020019184600183028401116401000000008311171561024157600080fd5b91908080601f016020809104026020016040519081016040528093929190818152602001838380828437600081840152601f19601f820116905080830192505050505050509192919290803590602001906401000000008111156102a457600080fd5b8201836020820111156102b657600080fd5b803590602001918460208302840111640100000000831117156102d857600080fd5b919080806020026020016040519081016040528093929190818152602001838360200280828437600081840152601f19601f8201169050808301925050505050505091929192905050506107b4565b005b34801561033557600080fd5b506103626004803603602081101561034c57600080fd5b8101908080359060200190929190505050610f2c565b6040518082815260200191505060405180910390f35b34801561038457600080fd5b506103b16004803603602081101561039b57600080fd5b8101908080359060200190929190505050611001565b60405180806020018873ffffffffffffffffffffffffffffffffffffffff1673ffffffffffffffffffffffffffffffffffffffff168152602001878152602001861515151581526020018581526020018481526020018060200183810383528a818151815260200191508051906020019080838360005b83811015610443578082015181840152602081019050610428565b50505050905090810190601f1680156104705780820380516001836020036101000a031916815260200191505b50838103825284818151815260200191508051906020019080838360005b838110156104a957808201518184015260208101905061048e565b50505050905090810190601f1680156104d65780820380516001836020036101000a031916815260200191505b50995050505050505050505060405180910390f35b3480156104f757600080fd5b5061052e6004803603604081101561050e57600080fd5b8101908080359060200190929190803590602001909291905050506111a0565b6040518080602001828103825283818151815260200191508051906020019060200280838360005b83811015610571578082015181840152602081019050610556565b505050509050019250505060405180910390f35b34801561059157600080fd5b506105be600480360360208110156105a857600080fd5b810190808035906020019092919050505061146f565b6040518080602001828103825283818151815260200191508051906020019060200280838360005b838110156106015780820151818401526020810190506105e6565b505050509050019250505060405180910390f35b34801561062157600080fd5b506106586004803603604081101561063857600080fd5b810190808035906020019092919080359060200190929190505050611699565b6040518082815260200191505060405180910390f35b6106ae6004803603606081101561068457600080fd5b810190808035906020019092919080359060200190929190803590602001909291905050506118d5565b005b3480156106bc57600080fd5b506106e9600480360360208110156106d357600080fd5b810190808035906020019092919050505061224b565b005b3480156106f757600080fd5b50610700612607565b6040518082815260200191505060405180910390f35b60028054600181600116156101000203166002900480601f0160208091040260200160405190810160405280929190818152602001828054600181600116156101000203166002900480156107ac5780601f10610781576101008083540402835291602001916107ac565b820191906000526020600020905b81548152906001019060200180831161078f57829003601f168201915b505050505081565b600084511415151561082e576040517f08c379a000000000000000000000000000000000000000000000000000000000815260040180806020018281038252601e8152602001807f537572766579207469746c652063616e206e6f7420626520656d70747921000081525060200191505060405180910390fd5b60008251141515156108ce576040517f08c379a00000000000000000000000000000000000000000000000000000000081526004018080602001828103825260248152602001807f537572766579206465736372697074696f6e2063616e206e6f7420626520656d81526020017f707479210000000000000000000000000000000000000000000000000000000081525060400191505060405180910390fd5b82341015151561096c576040517f08c379a00000000000000000000000000000000000000000000000000000000081526004018080602001828103825260368152602001807f537572766579206d75737420626520636f6d706c657461626c6520627920617481526020017f206c65617374206f6e65207061727469636970616e740000000000000000000081525060400191505060405180910390fd5b60008151111515610a0b576040517f08c379a000000000000000000000000000000000000000000000000000000000815260040180806020018281038252602c8152602001807f4f6e65207175657374696f6e2073686f756c642062652070726573656e74206981526020017f6e2074686520737572766579000000000000000000000000000000000000000081525060400191505060405180910390fd5b60e0604051908101604052808581526020013373ffffffffffffffffffffffffffffffffffffffff168152602001600081526020016001151581526020018481526020013481526020018381525060008060015481526020019081526020016000206000820151816000019080519060200190610a8992919061260d565b5060208201518160010160006101000a81548173ffffffffffffffffffffffffffffffffffffffff021916908373ffffffffffffffffffffffffffffffffffffffff1602179055506040820151816002015560608201518160030160006101000a81548160ff0219169083151502179055506080820151816004015560a0820151816005015560c0820151816006019080519060200190610b2b92919061260d565b5090505060008060006001548152602001908152602001600020905060408051908101604052807f4920616d206e6f74207573696e67206120626f74000000000000000000000000815260200160008152508160070160008081526020019081526020016000206000820151816000015560208201518160010155905050806002016000815480929190600101919050555060008090505b8251811015610c4a5760408051908101604052808483815181101515610be557fe5b906020019060200201518152602001600081525082600701600084600201548152602001908152602001600020600082015181600001556020820151816001015590505081600201600081548092919060010191905055508080600101915050610bc3565b5080600080600154815260200190815260200160002060008201816000019080546001816001161561010002031660029004610c8792919061268d565b506001820160009054906101000a900473ffffffffffffffffffffffffffffffffffffffff168160010160006101000a81548173ffffffffffffffffffffffffffffffffffffffff021916908373ffffffffffffffffffffffffffffffffffffffff160217905550600282015481600201556003820160009054906101000a900460ff168160030160006101000a81548160ff021916908315150217905550600482015481600401556005820154816005015560068201816006019080546001816001161561010002031660029004610d6192919061268d565b509050506001600081548092919060010191905055507fee85475c09e77f9e2e0d504dab871a9c9190cf5862f4e9d717d9a5bbf3475db3816000013383600201546001856004015486600501548760060160405180806020018873ffffffffffffffffffffffffffffffffffffffff1673ffffffffffffffffffffffffffffffffffffffff168152602001878152602001861515151581526020018581526020018481526020018060200183810383528a818154600181600116156101000203166002900481526020019150805460018160011615610100020316600290048015610e8d5780601f10610e6257610100808354040283529160200191610e8d565b820191906000526020600020905b815481529060010190602001808311610e7057829003601f168201915b5050838103825284818154600181600116156101000203166002900481526020019150805460018160011615610100020316600290048015610f105780601f10610ee557610100808354040283529160200191610f10565b820191906000526020600020905b815481529060010190602001808311610ef357829003601f168201915b5050995050505050505050505060405180910390a15050505050565b600060015482101515610fa7576040517f08c379a00000000000000000000000000000000000000000000000000000000081526004018080602001828103825260138152602001807f5375727665792073686f756c642065786973740000000000000000000000000081525060200191505060405180910390fd5b60008083815260200190815260200160002060080160003373ffffffffffffffffffffffffffffffffffffffff1673ffffffffffffffffffffffffffffffffffffffff168152602001908152602001600020549050919050565b6000602052806000526040600020600091509050806000018054600181600116156101000203166002900480601f0160208091040260200160405190810160405280929190818152602001828054600181600116156101000203166002900480156110ad5780601f10611082576101008083540402835291602001916110ad565b820191906000526020600020905b81548152906001019060200180831161109057829003601f168201915b5050505050908060010160009054906101000a900473ffffffffffffffffffffffffffffffffffffffff16908060020154908060030160009054906101000a900460ff1690806004015490806005015490806006018054600181600116156101000203166002900480601f0160208091040260200160405190810160405280929190818152602001828054600181600116156101000203166002900480156111965780601f1061116b57610100808354040283529160200191611196565b820191906000526020600020905b81548152906001019060200180831161117957829003601f168201915b5050505050905087565b606082826001548210151561121d576040517f08c379a00000000000000000000000000000000000000000000000000000000081526004018080602001828103825260138152602001807f5375727665792073686f756c642065786973740000000000000000000000000081525060200191505060405180910390fd5b60008083815260200190815260200160002060020154811015156112a9576040517f08c379a000000000000000000000000000000000000000000000000000000000815260040180806020018281038252601f8152602001807f5175657374696f6e2073686f756c6420657869737420696e207375727665790081525060200191505060405180910390fd5b843373ffffffffffffffffffffffffffffffffffffffff1660008083815260200190815260200160002060010160009054906101000a900473ffffffffffffffffffffffffffffffffffffffff1673ffffffffffffffffffffffffffffffffffffffff161415156113a8576040517f08c379a00000000000000000000000000000000000000000000000000000000081526004018080602001828103825260298152602001807f4f6e6c7920636f6e647563746f722063616e2075736520746869732066756e6381526020017f74696f6e616c697479000000000000000000000000000000000000000000000081525060400191505060405180910390fd5b60008060008881526020019081526020016000206007016000878152602001908152602001600020905060008160010154905060608160405190808252806020026020018201604052801561140c5781602001602082028038833980820191505090505b50905060008090505b8281101561145f5783600201600082815260200190815260200160002060010154828281518110151561144457fe5b90602001906020020181815250508080600101915050611415565b5080965050505050505092915050565b6060813373ffffffffffffffffffffffffffffffffffffffff1660008083815260200190815260200160002060010160009054906101000a900473ffffffffffffffffffffffffffffffffffffffff1673ffffffffffffffffffffffffffffffffffffffff16141515611570576040517f08c379a00000000000000000000000000000000000000000000000000000000081526004018080602001828103825260298152602001807f4f6e6c7920636f6e647563746f722063616e2075736520746869732066756e6381526020017f74696f6e616c697479000000000000000000000000000000000000000000000081525060400191505060405180910390fd5b600154831015156115e9576040517f08c379a00000000000000000000000000000000000000000000000000000000081526004018080602001828103825260138152602001807f5375727665792073686f756c642065786973740000000000000000000000000081525060200191505060405180910390fd5b600080600085815260200190815260200160002090506000816002015490506060816040519080825280602002602001820160405280156116395781602001602082028038833980820191505090505b50905060008090505b8281101561168c5783600701600082815260200190815260200160002060000154828281518110151561167157fe5b90602001906020020181815250508080600101915050611642565b5080945050505050919050565b6000828260015482101515611716576040517f08c379a00000000000000000000000000000000000000000000000000000000081526004018080602001828103825260138152602001807f5375727665792073686f756c642065786973740000000000000000000000000081525060200191505060405180910390fd5b60008083815260200190815260200160002060020154811015156117a2576040517f08c379a000000000000000000000000000000000000000000000000000000000815260040180806020018281038252601f8152602001807f5175657374696f6e2073686f756c6420657869737420696e207375727665790081525060200191505060405180910390fd5b848460008060008481526020019081526020016000209050818160080160003373ffffffffffffffffffffffffffffffffffffffff1673ffffffffffffffffffffffffffffffffffffffff16815260200190815260200160002054141515611898576040517f08c379a000000000000000000000000000000000000000000000000000000000815260040180806020018281038252602b8152602001807f43616e206f6e6c7920616e737765722066726f6d206c6173742071756573746981526020017f6f6e20616e73776572656400000000000000000000000000000000000000000081525060400191505060405180910390fd5b60008060008a8152602001908152602001600020905080600701600089815260200190815260200160002060000154965050505050505092915050565b828260015482101515611950576040517f08c379a00000000000000000000000000000000000000000000000000000000081526004018080602001828103825260138152602001807f5375727665792073686f756c642065786973740000000000000000000000000081525060200191505060405180910390fd5b6001151560008084815260200190815260200160002060030160009054906101000a900460ff1615151415156119ee576040517f08c379a00000000000000000000000000000000000000000000000000000000081526004018080602001828103825260108152602001807f53757276657920697320636c6f7365640000000000000000000000000000000081525060200191505060405180910390fd5b6000808381526020019081526020016000206002015481101515611a7a576040517f08c379a000000000000000000000000000000000000000000000000000000000815260040180806020018281038252601f8152602001807f5175657374696f6e2073686f756c6420657869737420696e207375727665790081525060200191505060405180910390fd5b3373ffffffffffffffffffffffffffffffffffffffff1660008084815260200190815260200160002060010160009054906101000a900473ffffffffffffffffffffffffffffffffffffffff1673ffffffffffffffffffffffffffffffffffffffff1614151515611b79576040517f08c379a000000000000000000000000000000000000000000000000000000000815260040180806020018281038252602c8152602001807f4f6e6c79207061727469636970616e74732063616e207573652074686973206681526020017f756e6374696f6e616c697479000000000000000000000000000000000000000081525060400191505060405180910390fd5b848460008060008481526020019081526020016000209050818160080160003373ffffffffffffffffffffffffffffffffffffffff1673ffffffffffffffffffffffffffffffffffffffff16815260200190815260200160002054141515611c6f576040517f08c379a000000000000000000000000000000000000000000000000000000000815260040180806020018281038252602b8152602001807f43616e206f6e6c7920616e737765722066726f6d206c6173742071756573746981526020017f6f6e20616e73776572656400000000000000000000000000000000000000000081525060400191505060405180910390fd5b60008060008a815260200190815260200160002090508060040154816005015410151515611d2b576040517f08c379a00000000000000000000000000000000000000000000000000000000081526004018080602001828103825260248152602001807f546869732073757276657920686173206e6f206d6f726520726577617264732081526020017f6c6566740000000000000000000000000000000000000000000000000000000081525060400191505060405180910390fd5b60008160070160008a815260200190815260200160002090506000891415611e4557806000015488141515611dc8576040517f08c379a00000000000000000000000000000000000000000000000000000000081526004018080602001828103825260168152602001807f43617074636861206973206e6f7420636f72726563740000000000000000000081525060200191505060405180910390fd5b60c834141515611e40576040517f08c379a00000000000000000000000000000000000000000000000000000000081526004018080602001828103825260158152602001807f50726f7669646520696e697469616c207072696365000000000000000000000081525060200191505060405180910390fd5b611ee0565b6001826002015403891415611edf573373ffffffffffffffffffffffffffffffffffffffff166108fc83600401549081150290604051600060405180830381858888f19350505050158015611e9e573d6000803e3d6000fd5b508160040154826005015403826005018190555060008260050154111515611ede5760008260030160006101000a81548160ff0219169083151502179055505b5b5b60408051908101604052803373ffffffffffffffffffffffffffffffffffffffff168152602001898152508160020160008360010154815260200190815260200160002060008201518160000160006101000a81548173ffffffffffffffffffffffffffffffffffffffff021916908373ffffffffffffffffffffffffffffffffffffffff160217905550602082015181600101559050508060010160008154809291906001019190505550808260070160008b8152602001908152602001600020600082015481600001556001820154816001015590505060018260080160003373ffffffffffffffffffffffffffffffffffffffff1673ffffffffffffffffffffffffffffffffffffffff16815260200190815260200160002060008282540192505081905550816000808c81526020019081526020016000206000820181600001908054600181600116156101000203166002900461204392919061268d565b506001820160009054906101000a900473ffffffffffffffffffffffffffffffffffffffff168160010160006101000a81548173ffffffffffffffffffffffffffffffffffffffff021916908373ffffffffffffffffffffffffffffffffffffffff160217905550600282015481600201556003820160009054906101000a900460ff168160030160006101000a81548160ff02191690831515021790555060048201548160040155600582015481600501556006820181600601908054600181600116156101000203166002900461211d92919061268d565b509050507f8aa2c645bf506856a79117408dbfc71d424f09eac568c8be4743f7e72ba2dc908a8360030160009054906101000a900460ff168b8560070160008e815260200190815260200160002060020160006001876001015403815260200190815260200160002060000160009054906101000a900473ffffffffffffffffffffffffffffffffffffffff168660070160008f81526020019081526020016000206002016000600188600101540381526020019081526020016000206001015460405180868152602001851515151581526020018481526020018373ffffffffffffffffffffffffffffffffffffffff1673ffffffffffffffffffffffffffffffffffffffff1681526020018281526020019550505050505060405180910390a150505050505050505050565b80600154811015156122c5576040517f08c379a00000000000000000000000000000000000000000000000000000000081526004018080602001828103825260138152602001807f5375727665792073686f756c642065786973740000000000000000000000000081525060200191505060405180910390fd5b6001151560008083815260200190815260200160002060030160009054906101000a900460ff161515141515612363576040517f08c379a00000000000000000000000000000000000000000000000000000000081526004018080602001828103825260108152602001807f53757276657920697320636c6f7365640000000000000000000000000000000081525060200191505060405180910390fd5b813373ffffffffffffffffffffffffffffffffffffffff1660008083815260200190815260200160002060010160009054906101000a900473ffffffffffffffffffffffffffffffffffffffff1673ffffffffffffffffffffffffffffffffffffffff16141515612462576040517f08c379a00000000000000000000000000000000000000000000000000000000081526004018080602001828103825260298152602001807f4f6e6c7920636f6e647563746f722063616e2075736520746869732066756e6381526020017f74696f6e616c697479000000000000000000000000000000000000000000000081525060400191505060405180910390fd5b6000806000858152602001908152602001600020905060008160030160006101000a81548160ff02191690831515021790555080600080868152602001908152602001600020600082018160000190805460018160011615610100020316600290046124cf92919061268d565b506001820160009054906101000a900473ffffffffffffffffffffffffffffffffffffffff168160010160006101000a81548173ffffffffffffffffffffffffffffffffffffffff021916908373ffffffffffffffffffffffffffffffffffffffff160217905550600282015481600201556003820160009054906101000a900460ff168160030160006101000a81548160ff0219169083151502179055506004820154816004015560058201548160050155600682018160060190805460018160011615610100020316600290046125a992919061268d565b509050507f5c98c563c156afb260a135bef89654797a180f5d7baba068ae602d6d2428ae6b848260030160009054906101000a900460ff1660405180838152602001821515151581526020019250505060405180910390a150505050565b60015481565b828054600181600116156101000203166002900490600052602060002090601f016020900481019282601f1061264e57805160ff191683800117855561267c565b8280016001018555821561267c579182015b8281111561267b578251825591602001919060010190612660565b5b5090506126899190612714565b5090565b828054600181600116156101000203166002900490600052602060002090601f016020900481019282601f106126c65780548555612703565b8280016001018555821561270357600052602060002091601f016020900482015b828111156127025782548255916001019190600101906126e7565b5b5090506127109190612714565b5090565b61273691905b8082111561273257600081600090555060010161271a565b5090565b9056fea165627a7a723058205c63b74b43834d717e43f054ed899fbd3175c4a394010f36a194ced14c7d1f640029",
  "source": "pragma solidity ^0.5.0;\n//declerad the version that we are going to use\n\n//CREATING OUR SMART CONTRACT //\n//1-This is the smart contract that handles all of the business logic \n//for buying and selling the items on blockchain.\n//2-Writes and reads from blockchain\n\ncontract SurveyReward {\n    mapping(uint256 => Survey) public surveys;\n    //A hash table. A key and a value.\n    //Key => Survey id, value => whole survey struct\n    uint256 public surveyCount = 0;\n    //We can use how many surveys are inside the mapping.\n    //We increment this everytime we add a new survey.\n    string public name;\n    //State variable which value is stored on the blockchain.\n    //Since we want to use the variable outside of the contract we used \"public\"\n\n    struct Survey {\n    //Create a way to add surveys to the SurveyReward\n    //in order to do that we use struct to create our own data structure.\n        string title;\n        address payable conductor;\n        uint256 questionCount;\n        bool open;\n        uint256 reward;\n        uint256 balance;\n        string description;\n        mapping(uint256 => Question) questions;\n        mapping(address => uint256) lastLeft;\n    }\n    //adress payable conductor = us\n    event SurveyCreation(\n        string title,\n        address payable conductor,\n        uint256 questionCount,\n        bool open,\n        uint256 reward,\n        uint256 balance,\n        string description\n    );\n\n    struct Question {\n        bytes32 text;\n        uint256 answerCount;\n        mapping(uint256 => Answer) answers;\n    }\n\n    struct Answer {\n        address payable participant;\n        bytes32 text;\n    }    \n\n    event QuestionAdditionToSurvey(\n        bytes32 text,\n        uint256 answerCount,\n        uint256 surveyid,\n        uint256 questionCount\n    );\n\n    event QuestionAnswered(\n        uint256 surveyid,\n        bool open,\n        uint256 questionid,\n        address participant,\n        bytes32 answer\n    );\n\n    event CloseSurvey(\n        uint256 surveyid,\n        bool open\n    );\n    \n    //Constructor--> A function inside the solidity that runs only one time\n    constructor() public {\n        name = \"Survey Rewarding System by BNB\";\n    }\n\n    modifier surveyAvailable(uint256 _surveyid){\n        require(_surveyid < surveyCount, \"Survey should exist\");\n        require(surveys[_surveyid].open == true,\"Survey is closed\");\n        _;        \n    }\n\n    modifier questionAvailable(uint256 _surveyid, uint256 _questionid){\n        require(_surveyid < surveyCount, \"Survey should exist\");\n        require(_questionid < surveys[_surveyid].questionCount,\"Question should exist in survey\");\n        _;\n    }\n    \n    modifier questionAnswarable(uint256 _surveyid, uint256 _questionid){\n        require(_surveyid < surveyCount, \"Survey should exist\");\n        require(surveys[_surveyid].open == true,\"Survey is closed\");\n        require(_questionid < surveys[_surveyid].questionCount,\"Question should exist in survey\");\n        require(surveys[_surveyid].conductor != msg.sender,\"Only participants can use this functionality\");\n        _;\n    }\n\n    modifier conductorOnly(uint256 _surveyid){\n        require(surveys[_surveyid].conductor == msg.sender,\"Only conductor can use this functionality\");\n        _;\n    }\n\n    modifier participantOnly(uint256 _surveyid){\n        require(surveys[_surveyid].conductor != msg.sender,\"Only participants can use this functionality\");\n        _;\n    }\n\n    modifier checkpointSatisfies(uint256 _surveyid,uint256 _questionid){\n        Survey storage _survey = surveys[_surveyid];\n        require(_survey.lastLeft[msg.sender] == _questionid,\"Can only answer from last question answered\");\n        _;\n    }\n\n    // CREATES A SURVEY WITH GIVEN TITLE AND REWARD PARAMS\n    // QUESTION 0 IS A CONSTANT CAPTCHA WHICH MUST BE TYPED BY THE PARTICIPANT\n    // TO PREVENT BOT ATTACKS\n    function createSurvey(string memory _title,uint256 _reward,\n    string memory _description,bytes32[] memory questions) \n    public payable {\n        //Alt izgili olanlar local variable\n        require(bytes(_title).length != 0, \"Survey title can not be empty!\");\n        require(bytes(_description).length != 0, \"Survey description can not be empty!\");\n        require(msg.value >= _reward,\"Survey must be completable by at least one participant\");\n        require(questions.length > 0 ,\"One question should be present in the survey\");\n        //First we made sure that the parameters is correct\n\n        //Create Survey\n        surveys[surveyCount] = Survey(_title, msg.sender, 0, true,_reward,msg.value,_description);\n        //we increment the Survey parameters by one. for the owner we use msg.sender \n        //and since we didn't fill the survey it's false at the beginning.\n        Survey storage _survey = surveys[surveyCount];\n        _survey.questions[0] = Question(\"I am not using a bot\",0);\n        _survey.questionCount++;\n\n        for(uint i = 0; i < questions.length ; i++){\n            _survey.questions[_survey.questionCount] = Question(questions[i], 0);\n            _survey.questionCount++;\n        }\n\n        surveys[surveyCount] = _survey;\n        surveyCount++;\n        //Trigger an event.\n        emit SurveyCreation(_survey.title, msg.sender, _survey.questionCount , true,_survey.reward,_survey.balance,_survey.description);\n    }\n\n    // CLOSES THE SURVEY\n    // REQUIRED: SURVEY SHOULD EXIST\n    function closeSurvey(uint256 _surveyid) public \n    surveyAvailable(_surveyid)\n    conductorOnly(_surveyid){\n        Survey storage _survey = surveys[_surveyid];\n        _survey.open = false;\n        surveys[_surveyid] = _survey;\n        emit CloseSurvey(_surveyid, _survey.open);\n    }\n\n    // GETS QUESTION TEXT FROM SURVEY\n    // REQUIRED: BOTH SURVEY AND QUESTION SHOULD EXIST\n    function getQuestionFromSurvey(uint256 _surveyid, uint256 _questionid) public view \n    questionAvailable(_surveyid,_questionid)\n    checkpointSatisfies(_surveyid,_questionid)\n    returns(bytes32){\n        Survey storage _survey = surveys[_surveyid];\n        return _survey.questions[_questionid].text;\n    }\n\n    // GETS ALL THE ANSWERS TO GIVEN QUESTION\n    // REQUIRED: QUESTION SHOULD EXIST AND SENDER MUST BE CONDUCTOR\n    function getAnswers(uint256 _surveyid, uint256 _questionid) public view \n    questionAvailable(_surveyid,_questionid)\n    conductorOnly(_surveyid) returns(bytes32[] memory) {\n        Question storage _question = surveys[_surveyid].questions[_questionid];\n        uint256 _answerCount = _question.answerCount;\n        bytes32[] memory _answers = new bytes32[](_answerCount);\n        for(uint i = 0 ; i < _answerCount ; i++){\n            _answers[i] = _question.answers[i].text;\n        }\n        return _answers;\n    }\n\n    // ANSWERS GIVEN QUESTION FROM GIVEN SURVEY\n    // REQUIRED: QUESTION AND SURVEY MUST EXIST, SURVEY MUST BE OPEN AND \n    // QUESTION ID SHOULD BE EQUAL TO CHECKPOINT OF PARTICIPANT\n    // MESSAGE SENDER SHOULD NOT BE THE CONDUCTOR\n    function answerQuestion(uint256 _surveyid, uint256 _questionid, bytes32 _answer) public payable\n    questionAnswarable(_surveyid,_questionid)\n    checkpointSatisfies(_surveyid,_questionid){\n\n        Survey storage _survey = surveys[_surveyid];\n        require(_survey.balance >= _survey.reward,\"This survey has no more rewards left\");\n        Question storage _question = _survey.questions[_questionid];\n\n        if(_questionid == 0){ // QUESTION IS CAPTCHA\n            require(_answer == _question.text,\"Captcha is not correct\");\n            require(msg.value == 200,\"Provide initial price\");\n        }\n\n        else if(_questionid == _survey.questionCount-1){ // QUESTION IS LAST\n            msg.sender.transfer(_survey.reward);\n            _survey.balance = _survey.balance - _survey.reward;\n            if(_survey.balance <= 0 ) _survey.open = false;\n        }\n\n        // SAVE THE ANSWER\n        _question.answers[_question.answerCount] = Answer(msg.sender,_answer);\n        _question.answerCount++;\n        _survey.questions[_questionid] = _question;\n        _survey.lastLeft[msg.sender] += 1;\n        surveys[_surveyid] = _survey;\n\n        emit QuestionAnswered(_surveyid, _survey.open,_questionid, \n        _survey.questions[_questionid].answers[_question.answerCount - 1].participant, \n        _survey.questions[_questionid].answers[_question.answerCount - 1].text);\n    }\n\n    function getCheckpoint(uint256 _surveyid) public view\n    returns(uint256){\n        require(_surveyid < surveyCount, \"Survey should exist\");\n        return surveys[_surveyid].lastLeft[msg.sender];\n    }\n\n    function getAllQuestions(uint256 _surveyid) public view \n    conductorOnly(_surveyid)\n    returns(bytes32[] memory) {\n        require(_surveyid < surveyCount, \"Survey should exist\");\n        Survey storage _survey = surveys[_surveyid];\n        uint256 _questionCount = _survey.questionCount;\n        bytes32[] memory _questions = new bytes32[](_questionCount);\n        for(uint i = 0 ; i < _questionCount ; i++){\n            _questions[i] = _survey.questions[i].text;\n        }\n        return _questions;\n    }\n}\n",
  "sourcePath": "C:/Users/suuser/survey_reward-main_modified/src/contracts/SurveyReward.sol",
  "compiler": {
    "name": "solc",
    "version": "0.5.0+commit.1d4f565a.Emscripten.clang"
  },
  "schemaVersion": "3.0.2",
  "updatedAt": "2022-06-22T13:07:01.021Z",
  "devdoc": {
    "methods": {}
  },
  "userdoc": {
    "methods": {}
  }
}